S01700004763634170706C69636174696F6E312E737265635B
S11300000C942A000C9442010C9447000C94470071
S11300100C9447000C9447000C9447000C94470040
S11300200C9447000C9447000C9447000C94470030
S11300300C9447000C9447000C9447000C94470020
S11300400C9447000C9447000C9447000C94470010
S11300500C94470011241FBECFE5D8E0DEBFCDBF0E
S113006010E0A0E6B0E0E6E2F0E102C005900D92F7
S1130070AA3FB107D9F720E0AAEFB0E001C01D9272
S1130080AD3FB207E1F70E9410030C9411080C94E1
S1130090000061E081E00E94090347E066E081E03E
S11300A00E946C0182E00E94650282E00E9441028B
S11300B00E943D020E94350283E390E00E94A9055C
S11300C081E690E00E94B8058DE790E00E94B805B3
S11300D00895CF93DF932091FB003091FC00281703
S11300E0390709F48FC0EC010E9439028DE00E94A7
S11300F0B4058DE00E94B40582E990E00E94B80541
S11301008DE00E94B4058DE00E94B4058091FB004F
S11301109091FC008C179D07A0F547E066E081E014
S11301200E947B0120C04F5F5F4F5093FC004093BF
S1130130FB00415061E081E00E940D038DE00E94CC
S1130140B40582EA90E00E94B8058091FB00815DCD
S11301500E94B4058DE00E94B40568EE73E080E06F
S113016090E00E94A8014091FB005091FC00C4174C
S1130170D507C8F6415051095093FC004093FB0049
S113018036C0C817D90798F547E066E081E00E94B9
S11301908A0120C0415051095093FC004093FB0058
S11301A04F5F61E081E00E940D038DE00E94B40581
S11301B082EA90E00E94B8058091FB008F5C0E9467
S11301C0B4058DE00E94B40568EE73E080E090E031
S11301D00E94A8014091FB005091FC004C175D0760
S11301E0CCF64F5F5F4F5093FC004093FB0047E019
S11301F066E081E00E94990183EB90E00E94B805DB
S11302000E943502DF91CF9108956AEF70E082E099
S11302100E94BC02089580916000853619F085E63D
S11302208093600008950E940501809160008536E6
S113023099F087EC90E00E94B805809160000E94DC
S1130240B4058DE00E94B4058091600090E0C097F1
S11302500E9469000E940B018091FA00803419F316
S113026080EE90E00E94B8058091FA000E94B405E7
S11302708DE00E94B4058091FA0090E0C0970E943E
S11302806900D1CF1F920F920FB60F9211242F93B2
S11302903F934F935F936F937F938F939F93AF930A
S11302A0BF93EF93FF930E9439020E94B00580939D
S11302B060000E943502FF91EF91BF91AF919F9131
S11302C08F917F916F915F914F913F912F910F90FB
S11302D00FBE0F901F901895CF93DF93C82FD42F84
S11302E041E00E94170341E06D2F8C2F0E941703F9
S11302F0DF91CF910895CF93DF93C82FD42F41E09E
S11303000E946A0440E06D2F8C2F0E946A04DF91E2
S1130310CF910895CF93DF93C82FD42F40E00E944C
S11303206A0441E06D2F8C2F0E946A04DF91CF9103
S11303300895CF93DF93C82FD42F40E00E946A041E
S113034040E06D2F8C2F0E946A04DF91CF910895B5
S11303508F929F92AF92BF92CF92DF92EF92FF92D1
S1130360CF939B01AC01A8EEB3E00E94F7076B01A9
S11303707C0180E094E00E944B05C701B6010E9415
S1130380D8066B017C0120E030E040E057E40E9495
S113039032061816C4F0A701960160E070E080E010
S11303A097E40E94C50520E030E040E05CE30E9451
S11303B08A070E94A906862F0E949D050E949F0518
S11303C08130E1F748C020E030E040E058E3C70165
S11303D0B6010E948A0720E030E040E85FE30E9413
S11303E0C6050E94A9064B015C0120E030E040E014
S11303F05CE3C701B6010E948A076B017C01C50159
S1130400B4010E94D8069B01AC01C701B6010E9449
S113041037069B01AC0160E070E080E893E40E9441
S1130420C5050E94A906C62F862F0E949D05C12CD2
S1130430D12C76010E949F05813041F48C2F0E94BB
S11304409D058FEFC81AD80AE80AF80AC814D90417
S1130450EA04FB0479F7CF91FF90EF90DF90CF90FF
S1130460BF90AF909F908F9008958FB780688FBF93
S113047008958FB78F778FBF08958BB780648BBF34
S11304800895813069F028F0823089F08330B1F02A
S1130490089585B78E7F85BF85B78D7F85BF089505
S11304A085B7816085BF85B78D7F85BF089585B782
S11304B08E7F85BF85B7826085BF089585B78160CB
S11304C085BF85B7826085BF0895CF93C82F41E06B
S11304D061E00E948C0340E060E08C2F0E948C035A
S11304E06FEF8C2F0E941F05CF910895813091F0FA
S11304F028F08230E1F0833039F133C0613031F0DB
S113050038F0623089F1633069F104C088E30895FA
S113051087E30895613039F040F0623039F1633097
S113052031F48AE2089585E3089584E308956130FF
S113053039F040F06230E1F0633031F48DE2089537
S113054082E3089581E30895613039F040F0623028
S113055089F0633031F48BE2089580E308958CE5EB
S1130560089508958FE2089589E3089586E3089530
S113057083E308958DE30895CF92DF92EF92FF9283
S11305800F931F93CF93DF93F82E6B01E12C32C0AE
S11305906FEF8F2D0E941F0540E06E2D8F2D0E945E
S11305A06A04C0E024C0D4E0DC0F00E010E0A8013D
S11305B06D2F8F2D0E940904F8018081811116C0CE
S11305C066E970E080E090E00E94A801A8016D2F28
S11305D08F2D0E940904F8018081811107C06C2FBE
S11305E08E2D0E947602F60180830AC0CF5FC4304C
S11305F0D0F2E394F3E0FE1558F680E4F60180832C
S1130600DF91CF911F910F91FF90EF90DF90CF90EA
S1130610089541E00E948C0308950E94DF04089528
S11306200E9449000E94130180E090E00895813007
S113063011F130F08230D1F1833009F452C00895C1
S1130640413059F42AB381E090E002C0880F991F29
S11306506A95E2F7822B8ABB089541115CC02AB3E4
S113066081E090E002C0880F991F6A95E2F78095B7
S113067082238ABB0895413059F427B381E090E086
S113068002C0880F991F6A95E2F7822B87BB0895F1
S1130690411141C027B381E090E002C0880F991F47
S11306A06A95E2F78095822387BB0895413059F417
S11306B024B381E090E002C0880F991F6A95E2F7A5
S11306C0822B84BB0895411126C024B381E090E0BD
S11306D002C0880F991F6A95E2F78095822384BB34
S11306E00895413059F421B381E090E002C0880FAD
S11306F0991F6A95E2F7822B81BB089541110BC0C3
S113070021B381E090E002C0880F991F6A95E2F757
S11307108095822381BB0895813031F138F0823095
S113072009F43FC0833009F458C00895413069F496
S1130730611104C08AB3806F8ABB0895613009F0E7
S113074067C08AB38F608ABB0895411161C061118B
S113075004C08AB38F708ABB0895613009F058C011
S11307608AB3807F8ABB0895413069F4611104C063
S113077087B3806F87BB0895613009F049C087B3A0
S11307808F6087BB0895411143C0611104C087B3D2
S11307908F7087BB08956130D9F587B3807F87BB9D
S11307A00895413061F4611104C084B3806F84BB47
S11307B00895613069F584B38F6084BB0895411155
S11307C027C0611104C084B38F7084BB0895613065
S11307D0F9F484B3807F84BB0895413061F46111DE
S11307E004C081B3806F81BB0895613089F481B303
S11307F08F6081BB089541110BC0611104C081B3A6
S11308008F7081BB0895613019F481B3807F81BBFF
S113081008958130E9F030F0823081F1833009F4B9
S113082043C0089579B381E090E09C01062E02C094
S1130830220F331F0A94E2F7872F90E08223932339
S113084002C0959587956A95E2F7FA018083089529
S113085076B381E090E09C01062E02C0220F331F84
S11308600A94E2F7872F90E08223932302C09595A0
S113087087956A95E2F7FA018083089573B381E05E
S113088090E09C01062E02C0220F331F0A94E2F767
S1130890872F90E08223932302C0959587956A95CC
S11308A0E2F7FA018083089570B381E090E09C013F
S11308B0062E02C0220F331F0A94E2F7872F90E01E
S11308C08223932302C0959587956A95E2F7FA01EE
S11308D080830895813011F130F08230D1F183307A
S11308E009F452C00895413059F42BB381E090E0EB
S11308F002C0880F991F6A95E2F7822B8BBB08957B
S113090041115CC02BB381E090E002C0880F991FB5
S11309106A95E2F7809582238BBB0895413059F4A0
S113092028B381E090E002C0880F991F6A95E2F72E
S1130930822B88BB0895411141C028B381E090E027
S113094002C0880F991F6A95E2F78095822388BBBD
S11309500895413059F425B381E090E002C0880F36
S1130960991F6A95E2F7822B85BB0895411126C031
S113097025B381E090E002C0880F991F6A95E2F7E1
S11309808095822385BB0895413059F422B381E0D8
S113099090E002C0880F991F6A95E2F7822B82BB10
S11309A0089541110BC022B381E090E002C0880F8A
S11309B0991F6A95E2F78095822382BB089581305E
S11309C0A1F028F08230F9F0833059F108956111D3
S11309D005C08BB38F70482B4BBB0895613071F504
S11309E08BB3807F482B4BBB0895611105C088B33E
S11309F08F70482B48BB0895613001F588B3807F20
S1130A00482B48BB0895611105C085B38F70482BEE
S1130A1045BB0895613091F485B3807F482B45BB75
S1130A200895611105C082B38F70482B42BB0895AD
S1130A30613021F482B3807F482B42BB089581301A
S1130A4041F028F0823039F0833039F008956BBBDF
S1130A50089568BB089565BB089562BB089581112C
S1130A6007C083B78F7B83BF83B7877F83BF089516
S1130A70813031F483B78F7B83BF83B7886083BFB2
S1130A80089583B78E7F83BF83B78D7F83BF83B77A
S1130A908B7F83BF0895CF93DF93EC0180E00E94A6
S1130AA02F05C830D105F9F028F4209779F0219763
S1130AB081F040C0C11581E0D80749F1C11584E037
S1130AC0D80779F1C034D105A9F517C00E944105B2
S1130AD031C083B7816083BF83B78D7F83BF83B702
S1130AE08B7F83BF27C083B78E7F83BF83B782602A
S1130AF083BF83B78B7F83BF1DC083B7816083BFF0
S1130B0083B7826083BF83B78B7F83BF13C083B7F0
S1130B108E7F83BF83B78D7F83BF83B7846083BF9A
S1130B2009C083B7816083BF83B78D7F83BF83B7D9
S1130B30846083BFDF91CF91089582BF089508B682
S1130B4000FE05C088B7816088BF81E0089580E019
S1130B50089528E12AB926E820BD90BD89B90895F1
S1130B605F9BFECF8CB108955D9BFECF8CB9089539
S1130B70CF93DF93EC0103C00E94B40521968881D2
S1130B808111FACFDF91CF9108955058BB27AA273E
S1130B900E94DD050C9450070E94420738F00E9421
S1130BA0490720F039F49F3F19F426F40C943F07C9
S1130BB00EF4E095E7FB0C943907E92F0E946107D6
S1130BC058F3BA17620773078407950720F079F47E
S1130BD0A6F50C9483070EF4E0950B2EBA2FA02DE6
S1130BE00B01B90190010C01CA01A0011124FF27D6
S1130BF0591B99F0593F50F4503E68F11A16F040D1
S1130C00A22F232F342F4427585FF3CF46953795CF
S1130C102795A795F0405395C9F77EF41F16BA0B94
S1130C20620B730B840BBAF09150A1F0FF0FBB1F42
S1130C30661F771F881FC2F70EC0BA0F621F731F8B
S1130C40841F48F4879577956795B795F7959E3FE8
S1130C5008F0B0CF9395880F08F09927EE0F979579
S1130C60879508950E94150708F481E008950E946D
S1130C704B060C9450070E94490758F00E94420703
S1130C8040F029F45F3F29F00C94390751110C947A
S1130C9084070C943F070E94610768F39923B1F31A
S1130CA0552391F3951B550BBB27AA27621773078E
S1130CB0840738F09F5F5F4F220F331F441FAA1F22
S1130CC0A9F335D00E2E3AF0E0E832D091505040DE
S1130CD0E695001CCAF72BD0FE2F29D0660F771F8C
S1130CE0881FBB1F261737074807AB07B0E809F072
S1130CF0BB0B802DBF01FF2793585F4F3AF09E3FF7
S1130D00510578F00C9439070C9484075F3FE4F3A1
S1130D10983ED4F3869577956795B795F7959F5F39
S1130D20C9F7880F911D9695879597F90895E1E085
S1130D30660F771F881FBB1F621773078407BA07E4
S1130D4020F0621B730B840BBA0BEE1F88F7E0953F
S1130D5008950E94690788F09F5798F0B92F992742
S1130D60B751B0F0E1F0660F771F881F991F1AF092
S1130D70BA95C9F714C0B13091F00E948307B1E06D
S1130D8008950C948307672F782F8827B85F39F06C
S1130D90B93FCCF3869577956795B395D9F73EF42B
S1130DA090958095709561957F4F8F4F9F4F0895D3
S1130DB0E89409C097FB3EF49095809570956195F1
S1130DC07F4F8F4F9F4F9923A9F0F92F96E9BB27A7
S1130DD09395F695879577956795B795F111F8CF23
S1130DE0FAF4BB0F11F460FF1BC06F5F7F4F8F4F8E
S1130DF09F4F16C0882311F096E911C0772321F084
S1130E009EE8872F762F05C0662371F096E8862F1B
S1130E1070E060E02AF09A95660F771F881FDAF772
S1130E20880F9695879597F90895990F0008550F9F
S1130E30AA0BE0E8FEEF16161706E807F907C0F05C
S1130E4012161306E407F50798F0621B730B840B64
S1130E50950B39F40A2661F0232B242B252B21F43E
S1130E6008950A2609F4A140A6958FEF811D811DDE
S1130E70089597F99F6780E870E060E008959FEF18
S1130E8080EC089500240A9416161706180609061D
S1130E90089500240A9412161306140605060895EC
S1130EA0092E0394000C11F4882352F0BB0F40F474
S1130EB0BF2B11F460FF04C06F5F7F4F8F4F9F4FB4
S1130EC0089557FD9058440F551F59F05F3F71F036
S1130ED04795880F97FB991F61F09F3F79F087959D
S1130EE00895121613061406551FF2CF4695F1DF26
S1130EF008C0161617061806991FF1CF86957105B6
S1130F00610508940895E894BB2766277727CB01E9
S1130F1097F908950E949D070C9450070E94420778
S1130F2038F00E94490720F0952311F00C943907FA
S1130F300C943F0711240C9484070E94610770F3FA
S1130F40959FC1F3950F50E0551F629FF001729F6A
S1130F50BB27F00DB11D639FAA27F00DB11DAA1F79
S1130F60649F6627B00DA11D661F829F2227B00DC6
S1130F70A11D621F739FB00DA11D621F839FA00D51
S1130F80611D221F749F3327A00D611D231F849FA1
S1130F90600D211D822F762F6A2F11249F575040F8
S1130FA09AF0F1F088234AF0EE0FFF1FBB1F661F73
S1130FB0771F881F91505040A9F79E3F510580F03C
S1130FC00C9439070C9484075F3FE4F3983ED4F300
S1130FD0869577956795B795F795E7959F5FC1F7E0
S1130FE0FE2B880F911D9695879597F908950E9479
S1130FF00208A59F900DB49F900DA49F800D911D94
S113100011240895A29FB001B39FC001A39F700D46
S1131010811D1124911DB29F700D811D1124911DFC
S10910200895F894FFCFCF
S113102665566F6963655F436F6E74726F6C6C654A
S1131036645F456C657661746F72200D004772615A
S113104664756174696F6E2050726F6A656374208B
S11310560D00596F75204172652057656C636F6D7D
S11310666500456C657661746F72466C6F6F7220AD
S11310763A20000D48617665206265656E207265CA
S113108661636865640D000D596F7520456E74655E
S113109672207769746820566F696365203A200068
S11310A60D596F7520456E746572207769746820D2
S10D10B64B6579706164203A200054
S9030000FC
